{
  "contractName": "Ballot",
  "abi": [
    {
      "inputs": [
        {
          "internalType": "bytes32[]",
          "name": "proposalNames",
          "type": "bytes32[]"
        }
      ],
      "stateMutability": "nonpayable",
      "type": "constructor"
    },
    {
      "inputs": [],
      "name": "chairperson",
      "outputs": [
        {
          "internalType": "address",
          "name": "",
          "type": "address"
        }
      ],
      "stateMutability": "view",
      "type": "function"
    },
    {
      "inputs": [
        {
          "internalType": "uint256",
          "name": "",
          "type": "uint256"
        }
      ],
      "name": "proposals",
      "outputs": [
        {
          "internalType": "bytes32",
          "name": "name",
          "type": "bytes32"
        },
        {
          "internalType": "uint256",
          "name": "voteCount",
          "type": "uint256"
        }
      ],
      "stateMutability": "view",
      "type": "function"
    },
    {
      "inputs": [
        {
          "internalType": "address",
          "name": "",
          "type": "address"
        }
      ],
      "name": "voters",
      "outputs": [
        {
          "internalType": "uint256",
          "name": "weight",
          "type": "uint256"
        },
        {
          "internalType": "bool",
          "name": "voted",
          "type": "bool"
        },
        {
          "internalType": "address",
          "name": "delegate",
          "type": "address"
        },
        {
          "internalType": "uint256",
          "name": "vote",
          "type": "uint256"
        }
      ],
      "stateMutability": "view",
      "type": "function"
    },
    {
      "inputs": [
        {
          "internalType": "address",
          "name": "voter",
          "type": "address"
        }
      ],
      "name": "giveRightToVote",
      "outputs": [],
      "stateMutability": "nonpayable",
      "type": "function"
    },
    {
      "inputs": [
        {
          "internalType": "address",
          "name": "to",
          "type": "address"
        }
      ],
      "name": "delegate",
      "outputs": [],
      "stateMutability": "nonpayable",
      "type": "function"
    },
    {
      "inputs": [
        {
          "internalType": "uint256",
          "name": "proposal",
          "type": "uint256"
        }
      ],
      "name": "vote",
      "outputs": [],
      "stateMutability": "nonpayable",
      "type": "function"
    }
  ],
  "bytecode": "0x608060405234801562000010575f80fd5b506040516200124838038062001248833981810160405281019062000036919062000326565b335f806101000a81548173ffffffffffffffffffffffffffffffffffffffff021916908373ffffffffffffffffffffffffffffffffffffffff1602179055506001805f805f9054906101000a900473ffffffffffffffffffffffffffffffffffffffff1673ffffffffffffffffffffffffffffffffffffffff1673ffffffffffffffffffffffffffffffffffffffff1681526020019081526020015f205f01819055505f5b815181101562000169576002604051806040016040528084848151811062000108576200010762000375565b5b602002602001015181526020015f815250908060018154018082558091505060019003905f5260205f2090600202015f909190919091505f820151815f015560208201518160010155505080806200016090620003d8565b915050620000db565b505062000424565b5f604051905090565b5f80fd5b5f80fd5b5f80fd5b5f601f19601f8301169050919050565b7f4e487b71000000000000000000000000000000000000000000000000000000005f52604160045260245ffd5b620001ce8262000186565b810181811067ffffffffffffffff82111715620001f057620001ef62000196565b5b80604052505050565b5f6200020462000171565b9050620002128282620001c3565b919050565b5f67ffffffffffffffff82111562000234576200023362000196565b5b602082029050602081019050919050565b5f80fd5b5f819050919050565b6200025d8162000249565b811462000268575f80fd5b50565b5f815190506200027b8162000252565b92915050565b5f62000297620002918462000217565b620001f9565b90508083825260208201905060208402830185811115620002bd57620002bc62000245565b5b835b81811015620002ea5780620002d588826200026b565b845260208401935050602081019050620002bf565b5050509392505050565b5f82601f8301126200030b576200030a62000182565b5b81516200031d84826020860162000281565b91505092915050565b5f602082840312156200033e576200033d6200017a565b5b5f82015167ffffffffffffffff8111156200035e576200035d6200017e565b5b6200036c84828501620002f4565b91505092915050565b7f4e487b71000000000000000000000000000000000000000000000000000000005f52603260045260245ffd5b7f4e487b71000000000000000000000000000000000000000000000000000000005f52601160045260245ffd5b5f819050919050565b5f620003e482620003cf565b91507fffffffffffffffffffffffffffffffffffffffffffffffffffffffffffffffff8203620004195762000418620003a2565b5b600182019050919050565b610e1680620004325f395ff3fe608060405234801561000f575f80fd5b5060043610610060575f3560e01c80630121b93f14610064578063013cf08b146100805780632e4176cf146100b15780635c19a95c146100cf5780639e7b8d61146100eb578063a3ec138d14610107575b5f80fd5b61007e600480360381019061007991906108c2565b61013a565b005b61009a600480360381019061009591906108c2565b610275565b6040516100a8929190610914565b60405180910390f35b6100b96102a4565b6040516100c6919061097a565b60405180910390f35b6100e960048036038101906100e491906109bd565b6102c7565b005b610105600480360381019061010091906109bd565b610651565b005b610121600480360381019061011c91906109bd565b610833565b6040516101319493929190610a02565b60405180910390f35b5f60015f3373ffffffffffffffffffffffffffffffffffffffff1673ffffffffffffffffffffffffffffffffffffffff1681526020019081526020015f2090505f815f0154036101bf576040517f08c379a00000000000000000000000000000000000000000000000000000000081526004016101b690610a9f565b60405180910390fd5b806001015f9054906101000a900460ff1615610210576040517f08c379a000000000000000000000000000000000000000000000000000000000815260040161020790610b07565b60405180910390fd5b6001816001015f6101000a81548160ff021916908315150217905550818160020181905550805f01546002838154811061024d5761024c610b25565b5b905f5260205f2090600202016001015f82825461026a9190610b7f565b925050819055505050565b60028181548110610284575f80fd5b905f5260205f2090600202015f91509050805f0154908060010154905082565b5f8054906101000a900473ffffffffffffffffffffffffffffffffffffffff1681565b5f60015f3373ffffffffffffffffffffffffffffffffffffffff1673ffffffffffffffffffffffffffffffffffffffff1681526020019081526020015f209050806001015f9054906101000a900460ff1615610358576040517f08c379a000000000000000000000000000000000000000000000000000000000815260040161034f90610b07565b60405180910390fd5b3373ffffffffffffffffffffffffffffffffffffffff168273ffffffffffffffffffffffffffffffffffffffff16036103c6576040517f08c379a00000000000000000000000000000000000000000000000000000000081526004016103bd90610bfc565b60405180910390fd5b5f8290505b5f73ffffffffffffffffffffffffffffffffffffffff1660015f8373ffffffffffffffffffffffffffffffffffffffff1673ffffffffffffffffffffffffffffffffffffffff1681526020019081526020015f2060010160019054906101000a900473ffffffffffffffffffffffffffffffffffffffff1673ffffffffffffffffffffffffffffffffffffffff16146105345760015f8273ffffffffffffffffffffffffffffffffffffffff1673ffffffffffffffffffffffffffffffffffffffff1681526020019081526020015f2060010160019054906101000a900473ffffffffffffffffffffffffffffffffffffffff1690503373ffffffffffffffffffffffffffffffffffffffff168173ffffffffffffffffffffffffffffffffffffffff160361052f576040517f08c379a000000000000000000000000000000000000000000000000000000000815260040161052690610c64565b60405180910390fd5b6103cb565b6001826001015f6101000a81548160ff021916908315150217905550828260010160016101000a81548173ffffffffffffffffffffffffffffffffffffffff021916908373ffffffffffffffffffffffffffffffffffffffff1602179055505f60015f8573ffffffffffffffffffffffffffffffffffffffff1673ffffffffffffffffffffffffffffffffffffffff1681526020019081526020015f209050806001015f9054906101000a900460ff161561062e57825f0154600282600201548154811061060557610604610b25565b5b905f5260205f2090600202016001015f8282546106229190610b7f565b9250508190555061064b565b825f0154815f015f8282546106439190610b7f565b925050819055505b50505050565b5f8054906101000a900473ffffffffffffffffffffffffffffffffffffffff1673ffffffffffffffffffffffffffffffffffffffff163373ffffffffffffffffffffffffffffffffffffffff16146106de576040517f08c379a00000000000000000000000000000000000000000000000000000000081526004016106d590610cf2565b60405180910390fd5b60015f8273ffffffffffffffffffffffffffffffffffffffff1673ffffffffffffffffffffffffffffffffffffffff1681526020019081526020015f206001015f9054906101000a900460ff161561076b576040517f08c379a000000000000000000000000000000000000000000000000000000000815260040161076290610d5a565b60405180910390fd5b5f60015f8373ffffffffffffffffffffffffffffffffffffffff1673ffffffffffffffffffffffffffffffffffffffff1681526020019081526020015f205f0154146107ec576040517f08c379a00000000000000000000000000000000000000000000000000000000081526004016107e390610dc2565b60405180910390fd5b6001805f8373ffffffffffffffffffffffffffffffffffffffff1673ffffffffffffffffffffffffffffffffffffffff1681526020019081526020015f205f018190555050565b6001602052805f5260405f205f91509050805f015490806001015f9054906101000a900460ff16908060010160019054906101000a900473ffffffffffffffffffffffffffffffffffffffff16908060020154905084565b5f80fd5b5f819050919050565b6108a18161088f565b81146108ab575f80fd5b50565b5f813590506108bc81610898565b92915050565b5f602082840312156108d7576108d661088b565b5b5f6108e4848285016108ae565b91505092915050565b5f819050919050565b6108ff816108ed565b82525050565b61090e8161088f565b82525050565b5f6040820190506109275f8301856108f6565b6109346020830184610905565b9392505050565b5f73ffffffffffffffffffffffffffffffffffffffff82169050919050565b5f6109648261093b565b9050919050565b6109748161095a565b82525050565b5f60208201905061098d5f83018461096b565b92915050565b61099c8161095a565b81146109a6575f80fd5b50565b5f813590506109b781610993565b92915050565b5f602082840312156109d2576109d161088b565b5b5f6109df848285016109a9565b91505092915050565b5f8115159050919050565b6109fc816109e8565b82525050565b5f608082019050610a155f830187610905565b610a2260208301866109f3565b610a2f604083018561096b565b610a3c6060830184610905565b95945050505050565b5f82825260208201905092915050565b7f596f752068617665206e6f20726967687420746f20766f7465000000000000005f82015250565b5f610a89601983610a45565b9150610a9482610a55565b602082019050919050565b5f6020820190508181035f830152610ab681610a7d565b9050919050565b7f596f7520616c726561647920766f7465642e00000000000000000000000000005f82015250565b5f610af1601283610a45565b9150610afc82610abd565b602082019050919050565b5f6020820190508181035f830152610b1e81610ae5565b9050919050565b7f4e487b71000000000000000000000000000000000000000000000000000000005f52603260045260245ffd5b7f4e487b71000000000000000000000000000000000000000000000000000000005f52601160045260245ffd5b5f610b898261088f565b9150610b948361088f565b9250828201905080821115610bac57610bab610b52565b5b92915050565b7f53656c662d64656c65676174696f6e206973206e6f7420616c6c6f7765642e005f82015250565b5f610be6601f83610a45565b9150610bf182610bb2565b602082019050919050565b5f6020820190508181035f830152610c1381610bda565b9050919050565b7f466f756e64206c6f6f7020696e2064656c65676174696f6e2e000000000000005f82015250565b5f610c4e601983610a45565b9150610c5982610c1a565b602082019050919050565b5f6020820190508181035f830152610c7b81610c42565b9050919050565b7f4f6e6c79206368616972706572736f6e2063616e206772616e7420766f74696e5f8201527f67207269676874732e0000000000000000000000000000000000000000000000602082015250565b5f610cdc602983610a45565b9150610ce782610c82565b604082019050919050565b5f6020820190508181035f830152610d0981610cd0565b9050919050565b7f566f74657220616c726561647920766f7465642e0000000000000000000000005f82015250565b5f610d44601483610a45565b9150610d4f82610d10565b602082019050919050565b5f6020820190508181035f830152610d7181610d38565b9050919050565b7f566f74657220616c72656164792068617320766f74696e67207269676874732e5f82015250565b5f610dac602083610a45565b9150610db782610d78565b602082019050919050565b5f6020820190508181035f830152610dd981610da0565b905091905056fea26469706673582212200437b14896554cd6badd3caae32d4a3ccccd476e3f51b9367b11bbf395008eec64736f6c63430008150033",
  "immutableReferences": {},
  "source": "// SPDX-License-Identifier: MIT\r\n\r\npragma solidity ^0.8.16;\r\n\r\n\r\ncontract Ballot {\r\n\r\n    struct Voter {\r\n        uint weight;  // Accumulated voting weight from delegations\r\n        bool voted;   // Whether the voter has already voted\r\n        address delegate; // Address of the voter they delegated to\r\n        uint vote;    // Index of the voted proposal (if any)\r\n    }\r\n\r\n    struct Proposal {\r\n        bytes32 name;       // Short name (up to 32 bytes)\r\n        uint voteCount;    // Number of accumulated votes\r\n    }\r\n\r\n    address public chairperson;\r\n\r\n    mapping(address => Voter) public voters;\r\n\r\n    Proposal[] public proposals;\r\n\r\n \r\n    constructor(bytes32[] memory proposalNames) {\r\n        chairperson = msg.sender;\r\n        voters[chairperson].weight = 1;\r\n\r\n        for (uint i = 0; i < proposalNames.length; i++) {\r\n            proposals.push(Proposal({\r\n                name: proposalNames[i],\r\n                voteCount: 0\r\n            }));\r\n        }\r\n    }\r\n\r\n\r\n    function giveRightToVote(address voter) public {\r\n        require(msg.sender == chairperson, \"Only chairperson can grant voting rights.\");\r\n        require(!voters[voter].voted, \"Voter already voted.\");\r\n        require(voters[voter].weight == 0, \"Voter already has voting rights.\");\r\n        voters[voter].weight = 1;\r\n    }\r\n\r\n  \r\n    function delegate(address to) public {\r\n        Voter storage sender = voters[msg.sender];\r\n        require(!sender.voted, \"You already voted.\");\r\n        require(to != msg.sender, \"Self-delegation is not allowed.\");\r\n\r\n        // Check for delegation loops\r\n        address current = to;\r\n        while (voters[current].delegate != address(0)) {\r\n            current = voters[current].delegate;\r\n            require(current != msg.sender, \"Found loop in delegation.\");\r\n        }\r\n\r\n        sender.voted = true;\r\n        sender.delegate = to;\r\n        Voter storage delegate_ = voters[to];\r\n        if (delegate_.voted) {\r\n            // Directly add weight to delegate's proposal\r\n            proposals[delegate_.vote].voteCount += sender.weight;\r\n        } else {\r\n            // Add weight to delegate's total voting power\r\n            delegate_.weight += sender.weight;\r\n        }\r\n    }\r\n\r\n\r\n    function vote(uint proposal) public {\r\n        Voter storage sender = voters[msg.sender];\r\n        require(sender.weight != 0, \"You have no right to vote\");\r\n        require(!sender.voted, \"You already voted.\");\r\n        sender.voted = true;\r\n        sender.vote = proposal;\r\n\r\n        proposals[proposal].voteCount += sender.weight;\r\n    }\r\n\r\n}",
  "sourcePath": "C:\\Users\\HP\\Documents\\Vote Contract\\contracts\\Ballot.sol",
  "compiler": {
    "name": "solc",
    "version": "0.8.21+commit.d9974bed.Emscripten.clang"
  },
  "schemaVersion": "3.4.16",
  "updatedAt": "2024-11-23T05:29:13.764Z",
  "devdoc": {
    "kind": "dev",
    "methods": {},
    "version": 1
  },
  "userdoc": {
    "kind": "user",
    "methods": {},
    "version": 1
  }
}